{
  "_format": "hh-sol-artifact-1",
  "contractName": "DegenToken",
  "sourceName": "contracts/DegenToken.sol",
  "abi": [
    {
      "inputs": [
        {
          "internalType": "uint256",
          "name": "initialSupply",
          "type": "uint256"
        }
      ],
      "stateMutability": "nonpayable",
      "type": "constructor"
    },
    {
      "anonymous": false,
      "inputs": [
        {
          "indexed": true,
          "internalType": "address",
          "name": "owner",
          "type": "address"
        },
        {
          "indexed": true,
          "internalType": "address",
          "name": "spender",
          "type": "address"
        },
        {
          "indexed": false,
          "internalType": "uint256",
          "name": "value",
          "type": "uint256"
        }
      ],
      "name": "Approval",
      "type": "event"
    },
    {
      "anonymous": false,
      "inputs": [
        {
          "indexed": true,
          "internalType": "address",
          "name": "buyer",
          "type": "address"
        },
        {
          "indexed": false,
          "internalType": "string",
          "name": "itemName",
          "type": "string"
        },
        {
          "indexed": false,
          "internalType": "uint256",
          "name": "itemPrice",
          "type": "uint256"
        }
      ],
      "name": "ItemPurchased",
      "type": "event"
    },
    {
      "anonymous": false,
      "inputs": [
        {
          "indexed": true,
          "internalType": "address",
          "name": "previousOwner",
          "type": "address"
        },
        {
          "indexed": true,
          "internalType": "address",
          "name": "newOwner",
          "type": "address"
        }
      ],
      "name": "OwnershipTransferred",
      "type": "event"
    },
    {
      "anonymous": false,
      "inputs": [
        {
          "indexed": true,
          "internalType": "address",
          "name": "referrer",
          "type": "address"
        },
        {
          "indexed": true,
          "internalType": "address",
          "name": "referee",
          "type": "address"
        },
        {
          "indexed": false,
          "internalType": "uint256",
          "name": "reward",
          "type": "uint256"
        }
      ],
      "name": "ReferralReward",
      "type": "event"
    },
    {
      "anonymous": false,
      "inputs": [
        {
          "indexed": true,
          "internalType": "address",
          "name": "from",
          "type": "address"
        },
        {
          "indexed": true,
          "internalType": "address",
          "name": "to",
          "type": "address"
        },
        {
          "indexed": false,
          "internalType": "uint256",
          "name": "value",
          "type": "uint256"
        }
      ],
      "name": "Transfer",
      "type": "event"
    },
    {
      "inputs": [
        {
          "internalType": "address",
          "name": "owner",
          "type": "address"
        },
        {
          "internalType": "address",
          "name": "spender",
          "type": "address"
        }
      ],
      "name": "allowance",
      "outputs": [
        {
          "internalType": "uint256",
          "name": "",
          "type": "uint256"
        }
      ],
      "stateMutability": "view",
      "type": "function"
    },
    {
      "inputs": [
        {
          "internalType": "address",
          "name": "spender",
          "type": "address"
        },
        {
          "internalType": "uint256",
          "name": "amount",
          "type": "uint256"
        }
      ],
      "name": "approve",
      "outputs": [
        {
          "internalType": "bool",
          "name": "",
          "type": "bool"
        }
      ],
      "stateMutability": "nonpayable",
      "type": "function"
    },
    {
      "inputs": [
        {
          "internalType": "address",
          "name": "account",
          "type": "address"
        }
      ],
      "name": "balanceOf",
      "outputs": [
        {
          "internalType": "uint256",
          "name": "",
          "type": "uint256"
        }
      ],
      "stateMutability": "view",
      "type": "function"
    },
    {
      "inputs": [
        {
          "internalType": "uint256",
          "name": "amount",
          "type": "uint256"
        }
      ],
      "name": "burn",
      "outputs": [],
      "stateMutability": "nonpayable",
      "type": "function"
    },
    {
      "inputs": [
        {
          "internalType": "uint256",
          "name": "itemIndex",
          "type": "uint256"
        }
      ],
      "name": "buyItem",
      "outputs": [],
      "stateMutability": "nonpayable",
      "type": "function"
    },
    {
      "inputs": [],
      "name": "claimReferralReward",
      "outputs": [],
      "stateMutability": "nonpayable",
      "type": "function"
    },
    {
      "inputs": [],
      "name": "decimals",
      "outputs": [
        {
          "internalType": "uint8",
          "name": "",
          "type": "uint8"
        }
      ],
      "stateMutability": "view",
      "type": "function"
    },
    {
      "inputs": [
        {
          "internalType": "address",
          "name": "spender",
          "type": "address"
        },
        {
          "internalType": "uint256",
          "name": "subtractedValue",
          "type": "uint256"
        }
      ],
      "name": "decreaseAllowance",
      "outputs": [
        {
          "internalType": "bool",
          "name": "",
          "type": "bool"
        }
      ],
      "stateMutability": "nonpayable",
      "type": "function"
    },
    {
      "inputs": [
        {
          "internalType": "uint256",
          "name": "index",
          "type": "uint256"
        }
      ],
      "name": "getItem",
      "outputs": [
        {
          "internalType": "string",
          "name": "name",
          "type": "string"
        },
        {
          "internalType": "uint256",
          "name": "basePrice",
          "type": "uint256"
        },
        {
          "internalType": "uint256",
          "name": "dynamicPrice",
          "type": "uint256"
        },
        {
          "internalType": "uint256",
          "name": "demand",
          "type": "uint256"
        }
      ],
      "stateMutability": "view",
      "type": "function"
    },
    {
      "inputs": [
        {
          "internalType": "address",
          "name": "spender",
          "type": "address"
        },
        {
          "internalType": "uint256",
          "name": "addedValue",
          "type": "uint256"
        }
      ],
      "name": "increaseAllowance",
      "outputs": [
        {
          "internalType": "bool",
          "name": "",
          "type": "bool"
        }
      ],
      "stateMutability": "nonpayable",
      "type": "function"
    },
    {
      "inputs": [
        {
          "internalType": "uint256",
          "name": "",
          "type": "uint256"
        }
      ],
      "name": "items",
      "outputs": [
        {
          "internalType": "string",
          "name": "name",
          "type": "string"
        },
        {
          "internalType": "uint256",
          "name": "basePrice",
          "type": "uint256"
        },
        {
          "internalType": "uint256",
          "name": "dynamicPrice",
          "type": "uint256"
        },
        {
          "internalType": "uint256",
          "name": "demand",
          "type": "uint256"
        }
      ],
      "stateMutability": "view",
      "type": "function"
    },
    {
      "inputs": [
        {
          "internalType": "uint256",
          "name": "amount",
          "type": "uint256"
        }
      ],
      "name": "mint",
      "outputs": [],
      "stateMutability": "nonpayable",
      "type": "function"
    },
    {
      "inputs": [],
      "name": "name",
      "outputs": [
        {
          "internalType": "string",
          "name": "",
          "type": "string"
        }
      ],
      "stateMutability": "view",
      "type": "function"
    },
    {
      "inputs": [],
      "name": "owner",
      "outputs": [
        {
          "internalType": "address",
          "name": "",
          "type": "address"
        }
      ],
      "stateMutability": "view",
      "type": "function"
    },
    {
      "inputs": [
        {
          "internalType": "address",
          "name": "",
          "type": "address"
        }
      ],
      "name": "purchaseCount",
      "outputs": [
        {
          "internalType": "uint256",
          "name": "",
          "type": "uint256"
        }
      ],
      "stateMutability": "view",
      "type": "function"
    },
    {
      "inputs": [
        {
          "internalType": "uint256",
          "name": "amount",
          "type": "uint256"
        }
      ],
      "name": "redeemTokens",
      "outputs": [],
      "stateMutability": "nonpayable",
      "type": "function"
    },
    {
      "inputs": [
        {
          "internalType": "address",
          "name": "referee",
          "type": "address"
        }
      ],
      "name": "referUser",
      "outputs": [],
      "stateMutability": "nonpayable",
      "type": "function"
    },
    {
      "inputs": [
        {
          "internalType": "address",
          "name": "",
          "type": "address"
        }
      ],
      "name": "referrals",
      "outputs": [
        {
          "internalType": "address",
          "name": "referrer",
          "type": "address"
        },
        {
          "internalType": "uint256",
          "name": "reward",
          "type": "uint256"
        }
      ],
      "stateMutability": "view",
      "type": "function"
    },
    {
      "inputs": [],
      "name": "renounceOwnership",
      "outputs": [],
      "stateMutability": "nonpayable",
      "type": "function"
    },
    {
      "inputs": [
        {
          "internalType": "address",
          "name": "user",
          "type": "address"
        },
        {
          "internalType": "uint256",
          "name": "discount",
          "type": "uint256"
        }
      ],
      "name": "setSpecialDiscount",
      "outputs": [],
      "stateMutability": "nonpayable",
      "type": "function"
    },
    {
      "inputs": [
        {
          "internalType": "address",
          "name": "",
          "type": "address"
        }
      ],
      "name": "specialDiscounts",
      "outputs": [
        {
          "internalType": "uint256",
          "name": "",
          "type": "uint256"
        }
      ],
      "stateMutability": "view",
      "type": "function"
    },
    {
      "inputs": [],
      "name": "symbol",
      "outputs": [
        {
          "internalType": "string",
          "name": "",
          "type": "string"
        }
      ],
      "stateMutability": "view",
      "type": "function"
    },
    {
      "inputs": [],
      "name": "totalSupply",
      "outputs": [
        {
          "internalType": "uint256",
          "name": "",
          "type": "uint256"
        }
      ],
      "stateMutability": "view",
      "type": "function"
    },
    {
      "inputs": [
        {
          "internalType": "address",
          "name": "to",
          "type": "address"
        },
        {
          "internalType": "uint256",
          "name": "amount",
          "type": "uint256"
        }
      ],
      "name": "transfer",
      "outputs": [
        {
          "internalType": "bool",
          "name": "",
          "type": "bool"
        }
      ],
      "stateMutability": "nonpayable",
      "type": "function"
    },
    {
      "inputs": [
        {
          "internalType": "address",
          "name": "from",
          "type": "address"
        },
        {
          "internalType": "address",
          "name": "to",
          "type": "address"
        },
        {
          "internalType": "uint256",
          "name": "amount",
          "type": "uint256"
        }
      ],
      "name": "transferFrom",
      "outputs": [
        {
          "internalType": "bool",
          "name": "",
          "type": "bool"
        }
      ],
      "stateMutability": "nonpayable",
      "type": "function"
    },
    {
      "inputs": [
        {
          "internalType": "address",
          "name": "newOwner",
          "type": "address"
        }
      ],
      "name": "transferOwnership",
      "outputs": [],
      "stateMutability": "nonpayable",
      "type": "function"
    }
  ],
  "bytecode": "0x60806040523480156200001157600080fd5b5060405162003a4838038062003a488339818101604052810190620000379190620005b3565b6040518060400160405280600581526020017f446567656e0000000000000000000000000000000000000000000000000000008152506040518060400160405280600381526020017f44474e00000000000000000000000000000000000000000000000000000000008152508160039081620000b4919062000855565b508060049081620000c6919062000855565b505050620000e9620000dd620001da60201b60201c565b620001e260201b60201c565b620000fb3382620002a860201b60201c565b620001436040518060400160405280600581526020017f53776f726400000000000000000000000000000000000000000000000000000081525060646200041560201b60201c565b6200018b6040518060400160405280600681526020017f536869656c64000000000000000000000000000000000000000000000000000081525060966200041560201b60201c565b620001d36040518060400160405280600681526020017f506f74696f6e000000000000000000000000000000000000000000000000000081525060326200041560201b60201c565b5062000ac9565b600033905090565b6000600560009054906101000a900473ffffffffffffffffffffffffffffffffffffffff16905081600560006101000a81548173ffffffffffffffffffffffffffffffffffffffff021916908373ffffffffffffffffffffffffffffffffffffffff1602179055508173ffffffffffffffffffffffffffffffffffffffff168173ffffffffffffffffffffffffffffffffffffffff167f8be0079c531659141344cd1fd0a4f28419497f9722a3daafe3b4186f6b6457e060405160405180910390a35050565b600073ffffffffffffffffffffffffffffffffffffffff168273ffffffffffffffffffffffffffffffffffffffff16036200031a576040517f08c379a000000000000000000000000000000000000000000000000000000000815260040162000311906200099d565b60405180910390fd5b6200032e60008383620004ae60201b60201c565b8060026000828254620003429190620009ee565b92505081905550806000808473ffffffffffffffffffffffffffffffffffffffff1673ffffffffffffffffffffffffffffffffffffffff168152602001908152602001600020600082825401925050819055508173ffffffffffffffffffffffffffffffffffffffff16600073ffffffffffffffffffffffffffffffffffffffff167fddf252ad1be2c89b69c2b068fc378daa952ba7f163c4a11628f55a4df523b3ef83604051620003f5919062000a3a565b60405180910390a36200041160008383620004b360201b60201c565b5050565b62000425620004b860201b60201c565b6006604051806080016040528084815260200183815260200183815260200160008152509080600181540180825580915050600190039060005260206000209060040201600090919091909150600082015181600001908162000489919062000855565b5060208201518160010155604082015181600201556060820151816003015550505050565b505050565b505050565b620004c8620001da60201b60201c565b73ffffffffffffffffffffffffffffffffffffffff16620004ee6200054960201b60201c565b73ffffffffffffffffffffffffffffffffffffffff161462000547576040517f08c379a00000000000000000000000000000000000000000000000000000000081526004016200053e9062000aa7565b60405180910390fd5b565b6000600560009054906101000a900473ffffffffffffffffffffffffffffffffffffffff16905090565b600080fd5b6000819050919050565b6200058d8162000578565b81146200059957600080fd5b50565b600081519050620005ad8162000582565b92915050565b600060208284031215620005cc57620005cb62000573565b5b6000620005dc848285016200059c565b91505092915050565b600081519050919050565b7f4e487b7100000000000000000000000000000000000000000000000000000000600052604160045260246000fd5b7f4e487b7100000000000000000000000000000000000000000000000000000000600052602260045260246000fd5b600060028204905060018216806200066757607f821691505b6020821081036200067d576200067c6200061f565b5b50919050565b60008190508160005260206000209050919050565b60006020601f8301049050919050565b600082821b905092915050565b600060088302620006e77fffffffffffffffffffffffffffffffffffffffffffffffffffffffffffffffff82620006a8565b620006f38683620006a8565b95508019841693508086168417925050509392505050565b6000819050919050565b600062000736620007306200072a8462000578565b6200070b565b62000578565b9050919050565b6000819050919050565b620007528362000715565b6200076a62000761826200073d565b848454620006b5565b825550505050565b600090565b6200078162000772565b6200078e81848462000747565b505050565b5b81811015620007b657620007aa60008262000777565b60018101905062000794565b5050565b601f8211156200080557620007cf8162000683565b620007da8462000698565b81016020851015620007ea578190505b62000802620007f98562000698565b83018262000793565b50505b505050565b600082821c905092915050565b60006200082a600019846008026200080a565b1980831691505092915050565b600062000845838362000817565b9150826002028217905092915050565b6200086082620005e5565b67ffffffffffffffff8111156200087c576200087b620005f0565b5b6200088882546200064e565b62000895828285620007ba565b600060209050601f831160018114620008cd5760008415620008b8578287015190505b620008c4858262000837565b86555062000934565b601f198416620008dd8662000683565b60005b828110156200090757848901518255600182019150602085019450602081019050620008e0565b8683101562000927578489015162000923601f89168262000817565b8355505b6001600288020188555050505b505050505050565b600082825260208201905092915050565b7f45524332303a206d696e7420746f20746865207a65726f206164647265737300600082015250565b600062000985601f836200093c565b915062000992826200094d565b602082019050919050565b60006020820190508181036000830152620009b88162000976565b9050919050565b7f4e487b7100000000000000000000000000000000000000000000000000000000600052601160045260246000fd5b6000620009fb8262000578565b915062000a088362000578565b925082820190508082111562000a235762000a22620009bf565b5b92915050565b62000a348162000578565b82525050565b600060208201905062000a51600083018462000a29565b92915050565b7f4f776e61626c653a2063616c6c6572206973206e6f7420746865206f776e6572600082015250565b600062000a8f6020836200093c565b915062000a9c8262000a57565b602082019050919050565b6000602082019050818103600083015262000ac28162000a80565b9050919050565b612f6f8062000ad96000396000f3fe608060405234801561001057600080fd5b506004361061018e5760003560e01c80638da5cb5b116100de578063a6e158f811610097578063bfb89d9711610071578063bfb89d97146104b0578063dd62ed3e146104e0578063e7fb74c714610510578063f2fde38b1461052c5761018e565b8063a6e158f814610431578063a9059cbb1461044d578063bfb231d21461047d5761018e565b80638da5cb5b1461036e57806395d89b411461038c5780639b4b2c9c146103aa5780639ca423b3146103b4578063a0712d68146103e5578063a457c2d7146104015761018e565b8063313ce5671161014b57806365b8e5241161012557806365b8e524146102fc57806370a0823114610318578063715018a614610348578063890c630c146103525761018e565b8063313ce5671461029257806339509351146102b057806342966c68146102e05761018e565b806306fdde0314610193578063095ea7b3146101b157806318160ddd146101e157806323b872dd146101ff57806327cfd5e11461022f5780633129e7731461025f575b600080fd5b61019b610548565b6040516101a89190611e66565b60405180910390f35b6101cb60048036038101906101c69190611f21565b6105da565b6040516101d89190611f7c565b60405180910390f35b6101e96105fd565b6040516101f69190611fa6565b60405180910390f35b61021960048036038101906102149190611fc1565b610607565b6040516102269190611f7c565b60405180910390f35b61024960048036038101906102449190612014565b610636565b6040516102569190611fa6565b60405180910390f35b61027960048036038101906102749190612041565b61064e565b604051610289949392919061206e565b60405180910390f35b61029a610771565b6040516102a791906120d6565b60405180910390f35b6102ca60048036038101906102c59190611f21565b61077a565b6040516102d79190611f7c565b60405180910390f35b6102fa60048036038101906102f59190612041565b6107b1565b005b61031660048036038101906103119190612014565b61084c565b005b610332600480360381019061032d9190612014565b610ab3565b60405161033f9190611fa6565b60405180910390f35b610350610afb565b005b61036c60048036038101906103679190611f21565b610b0f565b005b610376610ba3565b6040516103839190612100565b60405180910390f35b610394610bcd565b6040516103a19190611e66565b60405180910390f35b6103b2610c5f565b005b6103ce60048036038101906103c99190612014565b610d2e565b6040516103dc92919061211b565b60405180910390f35b6103ff60048036038101906103fa9190612041565b610d72565b005b61041b60048036038101906104169190611f21565b610d87565b6040516104289190611f7c565b60405180910390f35b61044b60048036038101906104469190612041565b610dfe565b005b61046760048036038101906104629190611f21565b610eb4565b6040516104749190611f7c565b60405180910390f35b61049760048036038101906104929190612041565b610ed2565b6040516104a7949392919061206e565b60405180910390f35b6104ca60048036038101906104c59190612014565b610f9a565b6040516104d79190611fa6565b60405180910390f35b6104fa60048036038101906104f59190612144565b610fb2565b6040516105079190611fa6565b60405180910390f35b61052a60048036038101906105259190612041565b611039565b005b61054660048036038101906105419190612014565b611298565b005b606060038054610557906121b3565b80601f0160208091040260200160405190810160405280929190818152602001828054610583906121b3565b80156105d05780601f106105a5576101008083540402835291602001916105d0565b820191906000526020600020905b8154815290600101906020018083116105b357829003601f168201915b5050505050905090565b6000806105e561131b565b90506105f2818585611323565b600191505092915050565b6000600254905090565b60008061061261131b565b905061061f8582856114ec565b61062a858585611578565b60019150509392505050565b60096020528060005260406000206000915090505481565b60606000806000600680549050851061069c576040517f08c379a000000000000000000000000000000000000000000000000000000000815260040161069390612230565b60405180910390fd5b6000600686815481106106b2576106b1612250565b5b90600052602060002090600402019050806000018160010154826002015483600301548380546106e1906121b3565b80601f016020809104026020016040519081016040528092919081815260200182805461070d906121b3565b801561075a5780601f1061072f5761010080835404028352916020019161075a565b820191906000526020600020905b81548152906001019060200180831161073d57829003601f168201915b505050505093509450945094509450509193509193565b60006012905090565b60008061078561131b565b90506107a68185856107978589610fb2565b6107a191906122ae565b611323565b600191505092915050565b600a81116107f4576040517f08c379a00000000000000000000000000000000000000000000000000000000081526004016107eb9061232e565b60405180910390fd5b6107fd33610ab3565b81111561083f576040517f08c379a00000000000000000000000000000000000000000000000000000000081526004016108369061239a565b60405180910390fd5b61084933826117ee565b50565b3373ffffffffffffffffffffffffffffffffffffffff168173ffffffffffffffffffffffffffffffffffffffff16036108ba576040517f08c379a00000000000000000000000000000000000000000000000000000000081526004016108b190612406565b60405180910390fd5b600073ffffffffffffffffffffffffffffffffffffffff16600860008373ffffffffffffffffffffffffffffffffffffffff1673ffffffffffffffffffffffffffffffffffffffff16815260200190815260200160002060000160009054906101000a900473ffffffffffffffffffffffffffffffffffffffff1673ffffffffffffffffffffffffffffffffffffffff161461098b576040517f08c379a000000000000000000000000000000000000000000000000000000000815260040161098290612472565b60405180910390fd5b60405180604001604052803373ffffffffffffffffffffffffffffffffffffffff168152602001600a815250600860008373ffffffffffffffffffffffffffffffffffffffff1673ffffffffffffffffffffffffffffffffffffffff16815260200190815260200160002060008201518160000160006101000a81548173ffffffffffffffffffffffffffffffffffffffff021916908373ffffffffffffffffffffffffffffffffffffffff160217905550602082015181600101559050508073ffffffffffffffffffffffffffffffffffffffff163373ffffffffffffffffffffffffffffffffffffffff167f53958b9c644a1d5529da7c36929d59417eb9a996f08e02a52632bfe20c92ef48600a604051610aa891906124d7565b60405180910390a350565b60008060008373ffffffffffffffffffffffffffffffffffffffff1673ffffffffffffffffffffffffffffffffffffffff168152602001908152602001600020549050919050565b610b036119bb565b610b0d6000611a39565b565b610b176119bb565b6032811115610b5b576040517f08c379a0000000000000000000000000000000000000000000000000000000008152600401610b529061253e565b60405180910390fd5b80600960008473ffffffffffffffffffffffffffffffffffffffff1673ffffffffffffffffffffffffffffffffffffffff168152602001908152602001600020819055505050565b6000600560009054906101000a900473ffffffffffffffffffffffffffffffffffffffff16905090565b606060048054610bdc906121b3565b80601f0160208091040260200160405190810160405280929190818152602001828054610c08906121b3565b8015610c555780601f10610c2a57610100808354040283529160200191610c55565b820191906000526020600020905b815481529060010190602001808311610c3857829003601f168201915b5050505050905090565b6000600860003373ffffffffffffffffffffffffffffffffffffffff1673ffffffffffffffffffffffffffffffffffffffff16815260200190815260200160002090506000816001015411610ce9576040517f08c379a0000000000000000000000000000000000000000000000000000000008152600401610ce0906125aa565b60405180910390fd5b60008160010154905060008260010181905550610d2a8260000160009054906101000a900473ffffffffffffffffffffffffffffffffffffffff1682611aff565b5050565b60086020528060005260406000206000915090508060000160009054906101000a900473ffffffffffffffffffffffffffffffffffffffff16908060010154905082565b610d7a6119bb565b610d843382611aff565b50565b600080610d9261131b565b90506000610da08286610fb2565b905083811015610de5576040517f08c379a0000000000000000000000000000000000000000000000000000000008152600401610ddc9061263c565b60405180910390fd5b610df28286868403611323565b60019250505092915050565b60008111610e41576040517f08c379a0000000000000000000000000000000000000000000000000000000008152600401610e38906126a8565b60405180910390fd5b80610e4b33610ab3565b1015610e8c576040517f08c379a0000000000000000000000000000000000000000000000000000000008152600401610e839061273a565b60405180910390fd5b60007312345678901234567890123456789012345678909050610eb0338284611578565b5050565b6000610ec8610ec161131b565b8484611578565b6001905092915050565b60068181548110610ee257600080fd5b9060005260206000209060040201600091509050806000018054610f05906121b3565b80601f0160208091040260200160405190810160405280929190818152602001828054610f31906121b3565b8015610f7e5780601f10610f5357610100808354040283529160200191610f7e565b820191906000526020600020905b815481529060010190602001808311610f6157829003601f168201915b5050505050908060010154908060020154908060030154905084565b60076020528060005260406000206000915090505481565b6000600160008473ffffffffffffffffffffffffffffffffffffffff1673ffffffffffffffffffffffffffffffffffffffff16815260200190815260200160002060008373ffffffffffffffffffffffffffffffffffffffff1673ffffffffffffffffffffffffffffffffffffffff16815260200190815260200160002054905092915050565b6006805490508110611080576040517f08c379a000000000000000000000000000000000000000000000000000000000815260040161107790612230565b60405180910390fd5b60006006828154811061109657611095612250565b5b90600052602060002090600402019050600061116d33836040518060800160405290816000820180546110c8906121b3565b80601f01602080910402602001604051908101604052809291908181526020018280546110f4906121b3565b80156111415780601f1061111657610100808354040283529160200191611141565b820191906000526020600020905b81548152906001019060200180831161112457829003601f168201915b505050505081526020016001820154815260200160028201548152602001600382015481525050611c55565b90508061117933610ab3565b10156111ba576040517f08c379a00000000000000000000000000000000000000000000000000000000081526004016111b1906127a6565b60405180910390fd5b6111c433826117ee565b60018260030160008282546111d991906122ae565b925050819055506111e983611d7a565b6001600760003373ffffffffffffffffffffffffffffffffffffffff1673ffffffffffffffffffffffffffffffffffffffff168152602001908152602001600020600082825461123991906122ae565b925050819055503373ffffffffffffffffffffffffffffffffffffffff167fb7cdc79e3be573b5b8b9df08b9f1d71b09b7604268bf72602622feb5de87da48836000018360405161128b92919061285f565b60405180910390a2505050565b6112a06119bb565b600073ffffffffffffffffffffffffffffffffffffffff168173ffffffffffffffffffffffffffffffffffffffff160361130f576040517f08c379a000000000000000000000000000000000000000000000000000000000815260040161130690612901565b60405180910390fd5b61131881611a39565b50565b600033905090565b600073ffffffffffffffffffffffffffffffffffffffff168373ffffffffffffffffffffffffffffffffffffffff1603611392576040517f08c379a000000000000000000000000000000000000000000000000000000000815260040161138990612993565b60405180910390fd5b600073ffffffffffffffffffffffffffffffffffffffff168273ffffffffffffffffffffffffffffffffffffffff1603611401576040517f08c379a00000000000000000000000000000000000000000000000000000000081526004016113f890612a25565b60405180910390fd5b80600160008573ffffffffffffffffffffffffffffffffffffffff1673ffffffffffffffffffffffffffffffffffffffff16815260200190815260200160002060008473ffffffffffffffffffffffffffffffffffffffff1673ffffffffffffffffffffffffffffffffffffffff168152602001908152602001600020819055508173ffffffffffffffffffffffffffffffffffffffff168373ffffffffffffffffffffffffffffffffffffffff167f8c5be1e5ebec7d5bd14f71427d1e84f3dd0314c0f7b2291e5b200ac8c7c3b925836040516114df9190611fa6565b60405180910390a3505050565b60006114f88484610fb2565b90507fffffffffffffffffffffffffffffffffffffffffffffffffffffffffffffffff81146115725781811015611564576040517f08c379a000000000000000000000000000000000000000000000000000000000815260040161155b90612a91565b60405180910390fd5b6115718484848403611323565b5b50505050565b600073ffffffffffffffffffffffffffffffffffffffff168373ffffffffffffffffffffffffffffffffffffffff16036115e7576040517f08c379a00000000000000000000000000000000000000000000000000000000081526004016115de90612b23565b60405180910390fd5b600073ffffffffffffffffffffffffffffffffffffffff168273ffffffffffffffffffffffffffffffffffffffff1603611656576040517f08c379a000000000000000000000000000000000000000000000000000000000815260040161164d90612bb5565b60405180910390fd5b611661838383611dcc565b60008060008573ffffffffffffffffffffffffffffffffffffffff1673ffffffffffffffffffffffffffffffffffffffff168152602001908152602001600020549050818110156116e7576040517f08c379a00000000000000000000000000000000000000000000000000000000081526004016116de90612c47565b60405180910390fd5b8181036000808673ffffffffffffffffffffffffffffffffffffffff1673ffffffffffffffffffffffffffffffffffffffff16815260200190815260200160002081905550816000808573ffffffffffffffffffffffffffffffffffffffff1673ffffffffffffffffffffffffffffffffffffffff168152602001908152602001600020600082825401925050819055508273ffffffffffffffffffffffffffffffffffffffff168473ffffffffffffffffffffffffffffffffffffffff167fddf252ad1be2c89b69c2b068fc378daa952ba7f163c4a11628f55a4df523b3ef846040516117d59190611fa6565b60405180910390a36117e8848484611dd1565b50505050565b600073ffffffffffffffffffffffffffffffffffffffff168273ffffffffffffffffffffffffffffffffffffffff160361185d576040517f08c379a000000000000000000000000000000000000000000000000000000000815260040161185490612cd9565b60405180910390fd5b61186982600083611dcc565b60008060008473ffffffffffffffffffffffffffffffffffffffff1673ffffffffffffffffffffffffffffffffffffffff168152602001908152602001600020549050818110156118ef576040517f08c379a00000000000000000000000000000000000000000000000000000000081526004016118e690612d6b565b60405180910390fd5b8181036000808573ffffffffffffffffffffffffffffffffffffffff1673ffffffffffffffffffffffffffffffffffffffff1681526020019081526020016000208190555081600260008282540392505081905550600073ffffffffffffffffffffffffffffffffffffffff168373ffffffffffffffffffffffffffffffffffffffff167fddf252ad1be2c89b69c2b068fc378daa952ba7f163c4a11628f55a4df523b3ef846040516119a29190611fa6565b60405180910390a36119b683600084611dd1565b505050565b6119c361131b565b73ffffffffffffffffffffffffffffffffffffffff166119e1610ba3565b73ffffffffffffffffffffffffffffffffffffffff1614611a37576040517f08c379a0000000000000000000000000000000000000000000000000000000008152600401611a2e90612dd7565b60405180910390fd5b565b6000600560009054906101000a900473ffffffffffffffffffffffffffffffffffffffff16905081600560006101000a81548173ffffffffffffffffffffffffffffffffffffffff021916908373ffffffffffffffffffffffffffffffffffffffff1602179055508173ffffffffffffffffffffffffffffffffffffffff168173ffffffffffffffffffffffffffffffffffffffff167f8be0079c531659141344cd1fd0a4f28419497f9722a3daafe3b4186f6b6457e060405160405180910390a35050565b600073ffffffffffffffffffffffffffffffffffffffff168273ffffffffffffffffffffffffffffffffffffffff1603611b6e576040517f08c379a0000000000000000000000000000000000000000000000000000000008152600401611b6590612e43565b60405180910390fd5b611b7a60008383611dcc565b8060026000828254611b8c91906122ae565b92505081905550806000808473ffffffffffffffffffffffffffffffffffffffff1673ffffffffffffffffffffffffffffffffffffffff168152602001908152602001600020600082825401925050819055508173ffffffffffffffffffffffffffffffffffffffff16600073ffffffffffffffffffffffffffffffffffffffff167fddf252ad1be2c89b69c2b068fc378daa952ba7f163c4a11628f55a4df523b3ef83604051611c3d9190611fa6565b60405180910390a3611c5160008383611dd1565b5050565b600080826040015190506005600760008673ffffffffffffffffffffffffffffffffffffffff1673ffffffffffffffffffffffffffffffffffffffff1681526020019081526020016000205410611cc2576064605a82611cb59190612e63565b611cbf9190612ed4565b90505b6000600960008673ffffffffffffffffffffffffffffffffffffffff1673ffffffffffffffffffffffffffffffffffffffff168152602001908152602001600020541115611d70576064600960008673ffffffffffffffffffffffffffffffffffffffff1673ffffffffffffffffffffffffffffffffffffffff168152602001908152602001600020546064611d589190612f05565b82611d639190612e63565b611d6d9190612ed4565b90505b8091505092915050565b600060068281548110611d9057611d8f612250565b5b9060005260206000209060040201905060028160030154611db19190612e63565b8160010154611dc091906122ae565b81600201819055505050565b505050565b505050565b600081519050919050565b600082825260208201905092915050565b60005b83811015611e10578082015181840152602081019050611df5565b60008484015250505050565b6000601f19601f8301169050919050565b6000611e3882611dd6565b611e428185611de1565b9350611e52818560208601611df2565b611e5b81611e1c565b840191505092915050565b60006020820190508181036000830152611e808184611e2d565b905092915050565b600080fd5b600073ffffffffffffffffffffffffffffffffffffffff82169050919050565b6000611eb882611e8d565b9050919050565b611ec881611ead565b8114611ed357600080fd5b50565b600081359050611ee581611ebf565b92915050565b6000819050919050565b611efe81611eeb565b8114611f0957600080fd5b50565b600081359050611f1b81611ef5565b92915050565b60008060408385031215611f3857611f37611e88565b5b6000611f4685828601611ed6565b9250506020611f5785828601611f0c565b9150509250929050565b60008115159050919050565b611f7681611f61565b82525050565b6000602082019050611f916000830184611f6d565b92915050565b611fa081611eeb565b82525050565b6000602082019050611fbb6000830184611f97565b92915050565b600080600060608486031215611fda57611fd9611e88565b5b6000611fe886828701611ed6565b9350506020611ff986828701611ed6565b925050604061200a86828701611f0c565b9150509250925092565b60006020828403121561202a57612029611e88565b5b600061203884828501611ed6565b91505092915050565b60006020828403121561205757612056611e88565b5b600061206584828501611f0c565b91505092915050565b600060808201905081810360008301526120888187611e2d565b90506120976020830186611f97565b6120a46040830185611f97565b6120b16060830184611f97565b95945050505050565b600060ff82169050919050565b6120d0816120ba565b82525050565b60006020820190506120eb60008301846120c7565b92915050565b6120fa81611ead565b82525050565b600060208201905061211560008301846120f1565b92915050565b600060408201905061213060008301856120f1565b61213d6020830184611f97565b9392505050565b6000806040838503121561215b5761215a611e88565b5b600061216985828601611ed6565b925050602061217a85828601611ed6565b9150509250929050565b7f4e487b7100000000000000000000000000000000000000000000000000000000600052602260045260246000fd5b600060028204905060018216806121cb57607f821691505b6020821081036121de576121dd612184565b5b50919050565b7f4974656d20696e646578206f7574206f6620626f756e64730000000000000000600082015250565b600061221a601883611de1565b9150612225826121e4565b602082019050919050565b600060208201905081810360008301526122498161220d565b9050919050565b7f4e487b7100000000000000000000000000000000000000000000000000000000600052603260045260246000fd5b7f4e487b7100000000000000000000000000000000000000000000000000000000600052601160045260246000fd5b60006122b982611eeb565b91506122c483611eeb565b92508282019050808211156122dc576122db61227f565b5b92915050565b7f416d6f756e742073686f756c642062652067726561746572207468616e203130600082015250565b6000612318602083611de1565b9150612323826122e2565b602082019050919050565b600060208201905081810360008301526123478161230b565b9050919050565b7f496e73756666696369656e742062616c616e636520746f206275726e00000000600082015250565b6000612384601c83611de1565b915061238f8261234e565b602082019050919050565b600060208201905081810360008301526123b381612377565b9050919050565b7f43616e6e6f7420726566657220796f757273656c660000000000000000000000600082015250565b60006123f0601583611de1565b91506123fb826123ba565b602082019050919050565b6000602082019050818103600083015261241f816123e3565b9050919050565b7f5573657220616c72656164792072656665727265640000000000000000000000600082015250565b600061245c601583611de1565b915061246782612426565b602082019050919050565b6000602082019050818103600083015261248b8161244f565b9050919050565b6000819050919050565b6000819050919050565b60006124c16124bc6124b784612492565b61249c565b611eeb565b9050919050565b6124d1816124a6565b82525050565b60006020820190506124ec60008301846124c8565b92915050565b7f446973636f756e742063616e6e6f742065786365656420353025000000000000600082015250565b6000612528601a83611de1565b9150612533826124f2565b602082019050919050565b600060208201905081810360008301526125578161251b565b9050919050565b7f4e6f20726566657272616c2072657761726420617661696c61626c6500000000600082015250565b6000612594601c83611de1565b915061259f8261255e565b602082019050919050565b600060208201905081810360008301526125c381612587565b9050919050565b7f45524332303a2064656372656173656420616c6c6f77616e63652062656c6f7760008201527f207a65726f000000000000000000000000000000000000000000000000000000602082015250565b6000612626602583611de1565b9150612631826125ca565b604082019050919050565b6000602082019050818103600083015261265581612619565b9050919050565b7f416d6f756e742073686f756c642062652067726561746572207468616e203000600082015250565b6000612692601f83611de1565b915061269d8261265c565b602082019050919050565b600060208201905081810360008301526126c181612685565b9050919050565b7f496e73756666696369656e742062616c616e636520746f2072656465656d207460008201527f6f6b656e73000000000000000000000000000000000000000000000000000000602082015250565b6000612724602583611de1565b915061272f826126c8565b604082019050919050565b6000602082019050818103600083015261275381612717565b9050919050565b7f496e73756666696369656e742062616c616e636520746f20627579206974656d600082015250565b6000612790602083611de1565b915061279b8261275a565b602082019050919050565b600060208201905081810360008301526127bf81612783565b9050919050565b60008190508160005260206000209050919050565b600081546127e8816121b3565b6127f28186611de1565b9450600182166000811461280d576001811461282357612856565b60ff198316865281151560200286019350612856565b61282c856127c6565b60005b8381101561284e5781548189015260018201915060208101905061282f565b808801955050505b50505092915050565b6000604082019050818103600083015261287981856127db565b90506128886020830184611f97565b9392505050565b7f4f776e61626c653a206e6577206f776e657220697320746865207a65726f206160008201527f6464726573730000000000000000000000000000000000000000000000000000602082015250565b60006128eb602683611de1565b91506128f68261288f565b604082019050919050565b6000602082019050818103600083015261291a816128de565b9050919050565b7f45524332303a20617070726f76652066726f6d20746865207a65726f2061646460008201527f7265737300000000000000000000000000000000000000000000000000000000602082015250565b600061297d602483611de1565b915061298882612921565b604082019050919050565b600060208201905081810360008301526129ac81612970565b9050919050565b7f45524332303a20617070726f766520746f20746865207a65726f20616464726560008201527f7373000000000000000000000000000000000000000000000000000000000000602082015250565b6000612a0f602283611de1565b9150612a1a826129b3565b604082019050919050565b60006020820190508181036000830152612a3e81612a02565b9050919050565b7f45524332303a20696e73756666696369656e7420616c6c6f77616e6365000000600082015250565b6000612a7b601d83611de1565b9150612a8682612a45565b602082019050919050565b60006020820190508181036000830152612aaa81612a6e565b9050919050565b7f45524332303a207472616e736665722066726f6d20746865207a65726f20616460008201527f6472657373000000000000000000000000000000000000000000000000000000602082015250565b6000612b0d602583611de1565b9150612b1882612ab1565b604082019050919050565b60006020820190508181036000830152612b3c81612b00565b9050919050565b7f45524332303a207472616e7366657220746f20746865207a65726f206164647260008201527f6573730000000000000000000000000000000000000000000000000000000000602082015250565b6000612b9f602383611de1565b9150612baa82612b43565b604082019050919050565b60006020820190508181036000830152612bce81612b92565b9050919050565b7f45524332303a207472616e7366657220616d6f756e742065786365656473206260008201527f616c616e63650000000000000000000000000000000000000000000000000000602082015250565b6000612c31602683611de1565b9150612c3c82612bd5565b604082019050919050565b60006020820190508181036000830152612c6081612c24565b9050919050565b7f45524332303a206275726e2066726f6d20746865207a65726f2061646472657360008201527f7300000000000000000000000000000000000000000000000000000000000000602082015250565b6000612cc3602183611de1565b9150612cce82612c67565b604082019050919050565b60006020820190508181036000830152612cf281612cb6565b9050919050565b7f45524332303a206275726e20616d6f756e7420657863656564732062616c616e60008201527f6365000000000000000000000000000000000000000000000000000000000000602082015250565b6000612d55602283611de1565b9150612d6082612cf9565b604082019050919050565b60006020820190508181036000830152612d8481612d48565b9050919050565b7f4f776e61626c653a2063616c6c6572206973206e6f7420746865206f776e6572600082015250565b6000612dc1602083611de1565b9150612dcc82612d8b565b602082019050919050565b60006020820190508181036000830152612df081612db4565b9050919050565b7f45524332303a206d696e7420746f20746865207a65726f206164647265737300600082015250565b6000612e2d601f83611de1565b9150612e3882612df7565b602082019050919050565b60006020820190508181036000830152612e5c81612e20565b9050919050565b6000612e6e82611eeb565b9150612e7983611eeb565b9250828202612e8781611eeb565b91508282048414831517612e9e57612e9d61227f565b5b5092915050565b7f4e487b7100000000000000000000000000000000000000000000000000000000600052601260045260246000fd5b6000612edf82611eeb565b9150612eea83611eeb565b925082612efa57612ef9612ea5565b5b828204905092915050565b6000612f1082611eeb565b9150612f1b83611eeb565b9250828203905081811115612f3357612f3261227f565b5b9291505056fea2646970667358221220ad85e9d75d9dc12fb7610cb34153c72d4a8729206000854041d4e188e8b74b3364736f6c63430008120033",
  "linkReferences": {},
  "deployedLinkReferences": {}
}